S00F00006932635F6E656F2E7372656376
S11300000EC028C027C026C025C024C023C022C0DB
S113001021C020C01FC01EC01DC064C08EC01124DA
S11300201FBECFE5D2E0DEBFCDBF10E0A0E6B0E05A
S1130030ECE4F5E002C005900D92A836B107D9F7BB
S113004021E0A8E6B0E001C01D92A332B207E1F7B7
S1130050AFD17AC2D5CF8093220181E090E0909312
S113006021018093200110927B0010927C00109259
S1130070690010926A0087B3856087BBC29AC09AF0
S1130080B89888EA8DB980EF8EB9089520916A00F6
S11300902F5F2F70909169002917E1F3E22FF0E0B0
S11300A0E559FF4F808320936A00089590917C0066
S11300B080917B009817D1F380917B008F5F8F70C4
S11300C080937B00E0917B00F0E0E358FF4F808158
S11300D0089520917C0090917B0081E0291308957C
S11300E080E008951F920F920FB60F9211248F9300
S11300F09F9310922101109220011092EE00109211
S1130100ED00B89802C0B09902C0B299FCCFB09B80
S113011011C088EA8DB981E090E090932101809329
S1130120200180EF8EB99F918F910F900FBE0F9099
S11301301F90189588EF8DB9F4CF1F920F920FB6C8
S11301400F9211248F939F93AF93BF93EF93FF93D9
S11301508091ED009091EE008230910509F47CC00D
S1130160E0F18430910509F459C008F489C0059779
S113017049F580917C008F5F8F7080937C00E091C3
S11301807C008FB1F0E0E358FF4F808380911F0122
S1130190843058F4E0917C00A82FB0E0AD59BF4FF3
S11301A0F0E0E358FF4F90819C938F5F80931F0191
S11301B084E090E09093EE008093ED001FB8B89A2D
S11301C08EE78EB9FF91EF91BF91AF919F918F917F
S11301D00F900FBE0F901F901895009749F101974B
S11301E089F790916A0080916900981751F1809184
S11301F069008F5F8F7080936900E0916900F0E07F
S1130200E559FF4F80818FB982E090E09093EE0032
S11302108093ED00B89A80E78EB9D4CF85E090E062
S11302209093EE008093ED00B89880E78EB9CACF22
S11302308FB18823E1F08FB18695909122018917BF
S1130240B1F088EA8DB980E78EB981E090E09093AF
S1130250210180932001B6CF83E090E09093EE00DB
S11302608093ED00B8981FB88EE78EB9ABCF789B1A
S11302700CC081E090E09093EE008093ED009ECF5F
S11302808FB1882309F4ADCFDCCF84E090E0909364
S1130290EE008093ED0010921F0190CFBC9A9B0159
S11302A0220F331F260F371F48B34F7E58B35061B8
S11302B06FB7F8942115310589F0FC01820F931F63
S11302C0219138E058BB27FF48BB220F000000C033
S11302D048BB3A95B9F7E817F90791F76FBF85E876
S11302E08A95F1F70000089527B3242B27BB9B01BF
S11302F0220F331F260F371F68B3542F50955623F0
S113030068B3642B4FB7F8942115310589F0FC01CB
S1130310820F931F219138E068BB27FF58BB220F3F
S1130320000000C058BB3A95B9F7E817F90791F7F0
S11303304FBF85E88A95F1F70000089528B32F7E12
S113034038B330614FB7F8946115710589F0FC0139
S1130350680F791F819198E038BB87FF28BB880F0D
S1130360000000C028BB9A95B9F7E617F70791F784
S11303704FBF089538B3242F2095232338B3342B4B
S11303804FB7F8946115710589F0FC01680F791F66
S1130390819198E038BB87FF28BB880F000000C01C
S11303A028BB9A95B9F7E617F70791F74FBF089559
S11303B08AE187BB88BB10926300109265008FE0CE
S11303C08093640010921F012FEF84E39CE021507E
S11303D080409040E1F700C00000CDE8D0E0AFEEEF
S11303E0B0E0EDEBF0E090E08FE024E113C0118287
S11303F01082228311961C9211971C9212962C93B0
S11304001297198218822A839F5F33961396239634
S11304109031A9F090FDEBCF818380838283119684
S11304208C9311978C9312968C931297898388835B
S11304308A839F5F339613962396903159F742E04F
S113044060E170E08DEB90E04FDF48E060E170E048
S11304508FEE90E049DF40E160E170E08DE890E0EC
S113046043DF2FEF80E792E0215080409040E1F796
S113047000C000002FEF84E39CE0215080409040B6
S1130480E1F700C0000080916700E5DD78948FE11A
S1130490E82E81E0F82E0DEB10E0CDEED0E019DE71
S11304A0811124C080911F018430C8F380916300BE
S11304B08230A1F18330E1F0813089F7209164002A
S11304C09091650080916600EDEBF0E021839083CC
S11304D082833396CE17DF07C9F742E060E170E00C
S11304E08DEB90E001DFF5DD8823E1F2DFDDDACF8B
S11304F0209164009091650080916600EDE8F0E041
S113050021839083828333960E171F07C9F740E136
S113051060E170E08DE890E0E7DEC1CF20916400F7
S11305209091650080916600EFEEF0E02183908366
S113053082833396EE16FF06C9F748E060E170E067
S10F05408FEE90E0D1DEABCFF894FFCF3B
S10B054C02081001FFFFFF0487
S9030000FC
