S00F00006932635F6E656F2E7372656376
S11300000EC028C027C026C025C024C023C022C0DB
S113001021C020C01FC01EC01DC064C08EC01124DA
S11300201FBECFE5D2E0DEBFCDBF10E0A0E6B0E05A
S1130030EAE1F5E002C005900D92A436B107D9F7C4
S113004020E0A4E6B0E001C01D92A23CB207E1F7B3
S1130050AFD161C2D5CF8093C10081E090E090938D
S1130060BD008093BC00109277001092780010922B
S113007065001092660087B3856087BBC29AC09AF8
S1130080B89888EA8DB980EF8EB9089520916600FA
S11300902F5F2F70909165002917E1F3E22FF0E0B4
S11300A0E959FF4F8083209366000895909178006A
S11300B0809177009817D1F3809177008F5F8F70CC
S11300C080937700E0917700F0E0E758FF4F80815C
S11300D00895209178009091770081E02913089584
S11300E080E008951F920F920FB60F9211248F9300
S11300F09F931092BD001092BC001092BA0010920F
S1130100B900B89802C0B09902C0B299FCCFB09BB4
S113011011C088EA8DB981E090E09093BD0080938E
S1130120BC0080EF8EB99F918F910F900FBE0F90FE
S11301301F90189588EF8DB9F4CF1F920F920FB6C8
S11301400F9211248F939F93AF93BF93EF93FF93D9
S11301508091B9009091BA008230910509F47CC075
S1130160E0F18430910509F459C008F489C0059779
S113017049F5809178008F5F8F7080937800E091CB
S113018078008FB1F0E0E758FF4F80838091BB0087
S1130190833058F4A0917800E82FF0E0E254FF4F48
S11301A0B0E0A758BF4F9C9190838F5F8093BB00B2
S11301B084E090E09093BA008093B9001FB8B89A95
S11301C08EE78EB9FF91EF91BF91AF919F918F917F
S11301D00F900FBE0F901F901895009749F101974B
S11301E089F79091660080916500981751F180918C
S11301F065008F5F8F7080936500E0916500F0E08B
S1130200E959FF4F80818FB982E090E09093BA0062
S11302108093B900B89A80E78EB9D4CF85E090E096
S11302209093BA008093B900B89880E78EB9CACF8A
S11302308FB18823E1F08FB186959091C100891721
S1130240B1F088EA8DB980E78EB981E090E09093AF
S1130250BD008093BC00B6CF83E090E09093BA00D9
S11302608093B900B8981FB88EE78EB9ABCF789B4E
S11302700CC081E090E09093BA008093B9009ECFC7
S11302808FB1882309F4ADCFDCCF84E090E0909364
S1130290BA008093B9001092BB0090CFBC9A9B0126
S11302A0220F331F260F371F48B34F7E58B35061B8
S11302B06FB7F8942115310589F0FC01820F931F63
S11302C0219138E058BB27FF48BB220F000000C033
S11302D048BB3A95B9F7E817F90791F76FBF85E876
S11302E08A95F1F70000089527B3242B27BB9B01BF
S11302F0220F331F260F371F68B3542F50955623F0
S113030068B3642B4FB7F8942115310589F0FC01CB
S1130310820F931F219138E068BB27FF58BB220F3F
S1130320000000C058BB3A95B9F7E817F90791F7F0
S11303304FBF85E88A95F1F70000089528B32F7E12
S113034038B330614FB7F8946115710589F0FC0139
S1130350680F791F819198E038BB87FF28BB880F0D
S1130360000000C028BB9A95B9F7E617F70791F784
S11303704FBF089538B3242F2095232338B3342B4B
S11303804FB7F8946115710589F0FC01680F791F66
S1130390819198E038BB87FF28BB880F000000C01C
S11303A028BB9A95B9F7E617F70791F74FBF089559
S11303B08AE187BB88BB1092BE001092C0008FE018
S11303C08093BF001092BB002FEF34E38CE02150E8
S11303D030408040E1F700C00000C9E8D0E0AAE85E
S11303E0B0E0EBE8F0E020E03FE044E109C018822F
S11303F01C9240832F5F239613963396203159F035
S113040020FDF5CF38833C9330832F5F23961396DA
S113041033962031A9F760E170E089E890E03EDF8F
S11304209FEF20E732E0915020403040E1F700C0D8
S1130430000060E170E089E890E030DF8FEF94E342
S11304402CE0815090402040E1F700C000008091F2
S1130450630001DE7894C0E03CDE811134C0CC231B
S113046099F1C1E0AEEBB0E0E0E6F0E09D9180915F
S11304706400891708F447C088B39081892B88BB2E
S1130480319680E0A03CB80789F7809164008F5FC3
S1130490809364008111E0CF8091BE00882331F005
S11304A098B3809160008095892388BB8091BF00B8
S11304B0882391F298B3809161008095892388BB49
S11304C008DE882361F2F2DD8091BB00833008F1FD
S11304D02091BF009091BE008091C000EBE8F0E055
S11304E0DF0112972C93DF0111979C93808333963D
S11304F030E0EB3BF307A1F760E170E089E890E0BE
S1130500CDDEC1E0AFCF98B380818095892388BBCD
S10D0510B7CFC0E0A7CFF894FFCFE7
S107051A02081004BB
S9030000FC
